:020000041000EA
:1000000000B5324B212058609868022188439860DF
:10001000D860186158612E4B002199600221596106
:100020000121F02299502B49196001219960352056
:1000300000F044F80222904214D00621196600F024
:1000400034F8196E01211966002018661A6600F04E
:100050002CF8196E196E196E052000F02FF8012189
:100060000842F9D1002199601B49196000215960AB
:100070001A491B48016001219960EB211966A021F2
:10008000196600F012F800219960164914480160C1
:100090000121996001BC002800D000471248134993
:1000A000086003C880F30888084703B5996A0420EC
:1000B0000142FBD001200142F8D103BD02B5186610
:1000C0001866FFF7F2FF186E186E02BD00000240BE
:1000D000000000180000070000035F00212200005C
:1000E000F4000018222000A00001001008ED00E03C
:1000F00000000000000000000000000074B24E7A12
:1001000000200420F7010010C3010010C5010010F9
:10011000C1010010C1010010C1010010C101001097
:10012000C1010010C1010010C1010010C701001081
:10013000C1010010C1010010C9010010CB01001065
:10014000CD010010CD010010CD010010CD01001037
:10015000CD010010CD010010CD010010CD01001027
:10016000CD010010CD010010CD010010CD01001017
:10017000CD010010CD010010CD010010CD01001007
:10018000CD010010CD010010CD010010CD010010F7
:10019000CD010010CD010010CD010010CD010010E7
:1001A000CD010010CD010010CD010010CD010010D7
:1001B000CD010010CD010010CD010010CD010010C7
:1001C00000BE00BE00BE00BE00BE00BEEFF3058054
:1001D000103800BEF2EB8871FC5A0010185B00105A
:1001E0003402001090A31AE700201F49086006C8D7
:1001F00081F3088810471D48006800282FD10DA4FE
:100200000ECC002902D000F012F8F9E71849194A7B
:10021000002000E001C19142FCD1174988471749ED
:1002200088471749884700BEFDE701C901C29A42C5
:10023000FBD37047185B0010C00000202C0B00207F
:100240008465001000000420000004208465001074
:10025000001004200010042000000000704709482E
:1002600003F028FA0047000008ED00E0000000D08D
:10027000300B0020580F0020D1230010A9050010DA
:10028000912300105756000006005250ABB3605344
:10029000905A001006005250861C0302A05A00100B
:1002A000060052505422A29DB05A00100500525030
:1002B000DE65F46884650010F8B5C0460448054B57
:1002C00010B5834203D0044B002B00D0984710BDDB
:1002D0002C0B00202C0B00200000000006480749D2
:1002E000091A8B10C90FC91810B5491003D0044B57
:1002F000002B00D0984710BD2C0B00202C0B0020A9
:100300000000000010B5074C2378002B09D1FFF73F
:10031000D5FF054B002B02D0044800E000BF0123AD
:10032000237010BD300C002000000000C84B0010EE
:10033000054B10B5002B03D00449054800E000BF71
:10034000FFF7CCFF10BDC04600000000340C0020B9
:10035000C84B0010F0B50B4E840023189B000025FD
:100360009D5123189B00B44663449D60DD608D68F9
:100370001D614D685D600B6813432418A400A351F0
:10038000F0BDC04600000540002303604360836069
:1003900010334360014B83607047C046FFFF00008D
:1003A00083001B189B000B488446634400290CD033
:1003B0001020824000290AD00749186842400A40AC
:1003C000802149010B431A6070470800F1E7034997
:1003D000F3E7C0460C0005400000FFFFFFFF0000F0
:1003E00070B504000D00160000F08AFA0300320018
:1003F0002900200001F0E2FD70BD10B50C2000F0D6
:1004000029FAD024240680235B01A3620022012163
:100410000C2000F04FF90A2000F01CFA8023DB00CA
:10042000A3620B2000F016FA80231B01A36210BD0B
:1004300030B587B002230393049301330593224B15
:100440001B680122134021490B60049B9900C918C5
:100450008B001F498C466344186810408021490175
:100460000B431860059B9800C0188300634418680C
:10047000024019430A606846FFF786FFFA23DB0053
:100480000193144B029300241AE0A20003ABD55849
:10049000002269462800FFF75DFF20001430042188
:1004A00000F0F0F8A80040198300094A944663441C
:1004B0001A680121914380225201134319600134CB
:1004C000022CE2DD07B030BD2800054028100540B1
:1004D00000000540E703000070B5050000240AE0B5
:1004E000230014335B0807201840012121402A0013
:1004F000FFF756FF0134022CF2DD70BD00B583B06A
:10050000074B1B78002B01D103B000BD01235840DD
:100510006B46D91D0870034801F062FDF4E7C04640
:10052000520F0020280D002070B5D022120654680A
:10053000E40A01231C405568AD0A1D40084B1B7896
:10054000A34204D0A54207D00020FFF7D7FF044BF9
:100550001C70044B1D7070BD0120FFF7CFFFF6E744
:10056000530F0020540F002010B503000D4A1278DD
:10057000002A08D00288002A0CD1FA2040001880F6
:10058000FFF7AAFF10BD0088FFF7A6FF054B012269
:100590001A70F7E70020FFF79FFF024B00221A7046
:1005A000F0E7C046520F002070B582B003F080FE25
:1005B000FFF723FFFFF73CFF30480A220121FFF736
:1005C0000FFF6B46FA225200DA802D4C2300F43ADA
:1005D000FF3A0C210A2000F0E1F8230001220C214F
:1005E0000B2000F0DBF8D0231B065B681B0B0126F9
:1005F0001E4073425E41F6B221E06B46981DFFF744
:10060000B3FF2E0014E06B4605331B78002B28D176
:100610006B469A1DDB8819339BB21380FA22920035
:10062000934201D96B46DA806B46D888FFF754FFB6
:1006300012486B46591D01F0D8FC0028E3D1D023A5
:100640001B065B681B0B01241C4065426541EDB233
:10065000B542EDD0642001F0A9F9002CCDD02E00D8
:10066000E6E76B4606331B88182B03D86B4600223F
:10067000DA80D9E7193B6A46D380D5E7280D0020F8
:100680002905001010B58300084A944663441A688F
:1006900040246240803414408022520113431C6085
:1006A000C000034B9C466044416010BD04C0014043
:1006B0000040014080000B4B9C46604400290DD057
:1006C0000823002A0CD004221343026853400C2252
:1006D0001A4080235B0103431A6070470023F0E750
:1006E0000022F1E704C0014070B50400D0231B06CE
:1006F0001D680D4BAA00D358002B0AD0002803D048
:10070000094BAD00EC5070BD08490D2000F0D4FA43
:10071000F6E70028F7D0044BAD00E850034900226B
:100720000D2000F0C1F9EEE7940C0020BD07001089
:10073000072303409B00C00899403C308000014BD8
:10074000C150704700400140F8B507000C0016008A
:100750001D00FFF7EDFFFB089B00ED180720384058
:1007600080008440002E04D080239B012B431C601A
:10077000F8BDC0239B012B431C60F9E710B5D023C3
:100780001B061B68002B03D0024BFFF7DDFF10BDDB
:10079000014BFAE7304101400041014070B51400BF
:1007A0001D00FFF7EBFF2800FFF79EFF002C00D194
:1007B00070BD01210D2000F03DF9F9E7F0B5D646F6
:1007C0004F464646C0B5D0231B061F681D4BBA00D6
:1007D000D3589846002F03D01B4B9946002623E0A0
:1007E0001A4B9946FAE724090135002C1BD0330037
:1007F0000833AB4217D90F231A00224092462342F6
:10080000F1D0134BBA00D2580123AB401342EAD1C6
:1008100051462800FFF78CFF4346002BE3D051469A
:100820002800C047DFE708361D2E06D8F308083336
:100830009B004A469C583500D7E7E0BCBA46B14613
:10084000A846F0BD940C0020304101400041014019
:10085000200D002010B501238340D02212069362A0
:1008600093610521FFF70EFF10BD0000034B1B68CD
:1008700002201840431E9841C0B2704700C0064095
:10088000EFF3108072B6034B1B68002BFBD0BFF355
:100890005F8F70472C0100D0BFF35F8F024B0022A7
:1008A0001A6080F3108870472C0100D0F8B506005C
:1008B0000C001500FFF7E4FFE308F718F15C0722CE
:1008C0002240012393400B4205D1DBB20B433B7026
:1008D000FFF7E2FFF8BD2100280001F0F5FD000060
:1008E000002307E0054A9A189200BFF35F8F0021AA
:1008F000116001331F2BF5D97047C046400000340A
:10090000054A1078431CDBB21370172B02D9130071
:1009100010221A707047C04638020020074B9B68AF
:10092000103080001950BFF35F8FBFF35F8F044B0F
:100930000021196082F310887047C04600ED00E086
:10094000240100D010B50388DA0A1C2A05D15B0502
:100950005B1502335B00C01810BD034B034A04480B
:10096000B12101F019FDC046C84B00102C4E0010FB
:10097000E04B001010B5091A0B1F0A4A88180A4AE2
:10098000904208D8C90706D45B105B055B0D074889
:10099000184380B210BD064B064A0748A32101F058
:1009A000FBFCC046FC070000FE0F000000E0FFFF5C
:1009B000244C0010204E0010E04B001010B5091A16
:1009C00004394A08090B08D14905490D064B0B4368
:1009D0000380064B1343438010BD054B054A064870
:1009E000AB2101F0D9FCC04600F0FFFF00F8FFFF8B
:1009F000544C0010F44D0010E04B001001238340D4
:100A0000034A10681840431E9841C0B27047C04660
:100A100000E100E0002904D0034B1860034B18608C
:100A20007047034B1860FBE780E200E000E100E064
:100A300080E100E010B5012383401800FFF7EAFFD2
:100A400010BD0000024B9B6810308000C0587047FA
:100A500000ED00E070B504000D00EFF3108672B6F3
:100A60000C4B1B68002BFBD0BFF35F8F2000FFF700
:100A7000E9FF094B984201D0A84205D13200290074
:100A80002000FFF74BFF70BD044B054A0548862147
:100A900001F082FC240100D0CD010010644C001054
:100AA000544E0010E04B0010F0B5DE4657464E465F
:100AB0004546E0B589B0814601911500EFF3108AF3
:100AC00072B66D4B1B68002BFBD0BFF35F8F6B4B77
:100AD00000269E57002E41DB7400A419A40068482C
:100AE00024180622A256654B1A70664B9A684B462C
:100AF00010339B00D35898461F00181A2F2839D955
:100B0000614B984530D105AF604B3B806049730025
:100B10009B46981980005A4B984640440230FFF794
:100B200029FF78805B4BBB80FF23BB71FD71019B6C
:100B3000079333005B449B00434407CF07C3012363
:100B40001C43A046524641464846FFF7E7FE09B01F
:100B5000F0BCBB46B246A946A046F0BD4E4B4F4A3C
:100B60004F48D72101F018FC4E4B4C4A4C48DE212F
:100B700001F012FC01380C2102F0F0FD002912D125
:100B800001239F43BB463B000027DA79AA4211D9D3
:100B90000621595600290CDB4A00521892003849A8
:100BA0001F008B18F1E7404B3C4A3D48EA2101F019
:100BB000F3FB1F00002F2ED005AB3C4A1A80813A70
:100BC0005A800623FB560293002B17DA384805ABF0
:100BD0009B469880029A9A71DD71019A0792381D9E
:100BE0002100FFF7C7FEB880BE71254B7200921935
:100BF00092009B185A4613CA13C3A3E7381DFFF788
:100C0000A1FE01007000801980001D4BC018043047
:100C1000FFF7B0FEDBE705AF1C4B3B801C497300C0
:100C200002939B199B00164A90461A004244039275
:100C3000901CFFF79FFE7880039A101D5946FFF71E
:100C400099FEB8801B4B5A464146521A52415343B3
:100C50001B0DBB71FD71019A0792029B9B199B00B2
:100C6000434407CF07C3114B5A461380813B53803F
:100C700001231C43A04665E7240100D0510F00204A
:100C80003C02002000ED00E0CD01001000A1FFFFBC
:100C90006C02002001BDFFFF9C4C00103C4E001078
:100CA000E04B0010C44C0010EC4C00100148000058
:100CB00001BD0000AAAA0000F0B5CE46474680B5A7
:100CC00083B006000D00EFF3108872B64F4B1B681F
:100CD000002BFBD0BFF35F8F4D4B9A68340010346C
:100CE000A300D7584B4B9F4207D0AF4200D18BE0B7
:100CF0000197494BFB1A2F2B09D942463900300086
:100D0000FFF70CFE03B0C0BCB946B046F0BD3000E2
:100D1000FFF774FE814600213000FFF78BFEBFF322
:100D20005F8FEFF30581002901D08C4211D101239F
:100D3000019C9C430020A368AB4212D00622A2561D
:100D4000002A0DDB53009B189B00334A2000D41867
:100D5000F1E7324B324A36213248FF3101F01CFBB9
:100D60002000AB4249D106256557002D2BDB2A4BCD
:100D70006A00521992009B189A68A260DA79E271AF
:100D80009B795BB2A371002B0FDA2748A080224B1E
:100D90006A00521992009B18244A117899711570B3
:100DA00049463000FFF746FEA7E76800401980007B
:100DB000194BC0180430FFF7C5FD0100231D1800B2
:100DC000FFF7D8FDE2E7002912D100280ED0FF235B
:100DD0008371174B838015490B78A3710E4A154B0D
:100DE000A41A644163431B0D0B70D9E7094FF2E766
:100DF0001149201DFFF7E2FDD2E7104B084A6A2196
:100E00000848FF3101F0C8FA024F76E7240100D00C
:100E100000ED00E0CD0100103C020020604D00100C
:100E20000C4E0010E04B001001BD0000510F0020DF
:100E300001BDFFFFAAAA000076020020944D001019
:100E400070B5012202432E4BD31A2F2B28D8EFF373
:100E50000583002B2BD0EFF3108C72B6294909685B
:100E60000029FBD0BFF35F8F254C274905002D1BC0
:100E70006D416943090D4CB2244989689B00C958EA
:100E800091421BD00021032932D81D4B4A00521831
:100E900092009B189B795BB2A3421FD00131F2E70D
:100EA0001B4B1C4AC7211C48490001F075FA1B4B1B
:100EB000184A92211848FF3101F06EFA134A9268DD
:100EC0001749D150174B1A7882711C70BFF35F8F8E
:100ED0000C4B00221A608CF3108870BD084B4A003E
:100EE0005518AD005D19FF26AE710F4AAA80E9E7DB
:100EF0000E4B084AD1210848490001F04DFAC0467E
:100F00003C020020240100D0AAAA000000ED00E06D
:100F10009C4D0010D84D0010E04B0010C44D001047
:100F2000CD010010510F002001BDFFFFD04D00107A
:100F30000022044B02E0044902C30132072AFAD915
:100F40007047C04600E400E080808080024B9C46F1
:100F500061448900016070474000003410B504000E
:100F6000FFF7CEFC01002000FFF7F0FFFF23237105
:100F7000BFF35F8F10BD10B50400FFF7C1FC010087
:100F80002000FFF7E3FFFF23237100236371BFF30A
:100F90005F8F10BD084B5B6A994209D8064A926A76
:100FA000824207D2994201D0012002E0002000E0F5
:100FB000002070470120FCE70040054010B50029E3
:100FC0000AD003681B7B8B4206D38068054B9C4686
:100FD00061440901401810BD034B044A04483C21F8
:100FE00001F0DAF9FFFFFF0F244F001068520010E4
:100FF000484F0010F8B504001700FFF7DFFF066840
:10100000456839002000FFF7D9FF026843680120D6
:10101000AB4201D802D00020C0B2F8BDB242FBD82A
:10102000F9E7000010B5002B02DB0260436010BD41
:10103000024B034A03483F2101F0AEF9844F0010F0
:1010400034520010A04F001010B582B00400049874
:10105000059912184B41002B09DB6846FFF7E2FFA8
:10106000009A019B22606360200002B010BD012243
:101070005242014BF1E7C046FFFFFF7F10B5002948
:1010800008D0037B8B4205D300684B005B18033B01
:10109000C01810BD024B034A0348682101F07CF9D7
:1010A000EC4F0010105200100850001010B5437B98
:1010B0008B4201D1012010BDFFF7E0FF8378002BA8
:1010C00001D10020F7E70120F5E770B50400857B2A
:1010D000002D01D1280070BD2900FFF7CFFF437814
:1010E000A373002B00D1E37300238370437003705C
:1010F000F0E70000F8B506000C001500FFF7BEFF92
:101100000700002C0DD0002D11D0AC4215D02900C5
:101110003000FFF7B3FF84703B78002B13D13D7094
:10112000F8BD0A4B0A4A0B486F2101F035F90A4B0A
:10113000074A0848702101F02FF9084B044A054876
:10114000712101F029F943703D70E9E75850001012
:10115000EC51001008500010645000107050001046
:1011600070B506000D001400002914D0002A14D018
:10117000436880689847002806D022002900300084
:10118000FFF7B8FF280007E02A0021003000FFF732
:10119000B1FF200000E0100070BD0800FCE7000077
:1011A00070B504000D1E0CD0FFF768FF002383709C
:1011B00043700370617B2A002000FFF7D1FF60734A
:1011C00070BD034B034A0448A52101F0E5F8C04671
:1011D00088500010005200100850001070B5040034
:1011E0000D1E0FD0FFF762FF00280BD1E17B002915
:1011F0000ED1A37B002B03D1E37B002B0DD1A57374
:10120000E57370BD084B094A0948F62101F0C4F89E
:101210002000FFF733FF4570EBE7064B034A044815
:10122000FB2101F0B9F8C0468C500010DC510010D1
:1012300008500010B050001010B5002907D0036806
:101240001B7B8B4203D3C0680139401810BD034B90
:10125000034A0448412101F09FF8C046244F001082
:10126000C8510010484F001070B505000C00080070
:1012700000F070FC0949200000F0B0FBFFF740FBD4
:10128000074B9C466044800068602C75D0231B0689
:101290001B786B75034BA400E55070BD91130010D3
:1012A00040000034100D00200A4B1A68EFF3108143
:1012B00072B61368002BFCD0BFF35F8F054B1B6821
:1012C000BFF35F8F00221A6081F3108840BF0020B7
:1012D000002170473C0F002010B582B0040000F0E0
:1012E00015FB02000B006846FFF79CFE009A019B6D
:1012F00022606360200002B010BD0000F0B583B032
:10130000070001921D000AAB1C780BAB1E78002C65
:101310000BD000682100FFF7C9FE002809D0194B47
:10132000194A1A48672101F037F80068FFF7CDFE27
:101330000400002C02D1200003B0F0BD21003800D1
:10134000FFF73CFE019B03604560089B8360099B9F
:10135000C36038682100FFF723FFA042EBD1387D3E
:10136000019A2B0000F082FB051E01D0002E04D054
:101370000C9B002BDFD01D70DDE73868210000F0EA
:101380002FFDF5E7C45000101C520010484F00100C
:10139000F0B5DE4657464E464546E0B58FB00B9059
:1013A0000021794B8200D458894683E0290020002F
:1013B000FFF704FE804602684368921BBB41002B86
:1013C00009DD43461A685B680B9800F04FFB002369
:1013D000984600268AE0002B01D1002AF1D1002195
:1013E000584600F0F3FC0700A84215D143461A689E
:1013F0005B680892099343469E68DB689846002E16
:1014000010D029002000FFF717FF037899461B0230
:101410001F432761002069E05C4B5D4A5D488E21D7
:1014200000F0BAFF5C4B5A4A5A48922100F0B4FFD0
:101430002369002B00D177E0BB4219D106980799A8
:10144000002342428B4100920193089A099B0CA809
:10145000FFF7FAFD0C9A0D9B0021049101310391D5
:1014600002954146019100962000FFF747FF16E0E4
:101470004A4B474A4748A12100F08EFF069A079B36
:10148000002B01D1002A52D120682900FFF7A6FEC7
:1014900029002000FFF7D0FE0378013303700023FA
:1014A00023616268BFF35F8F13608AF310880120A5
:1014B000002861D00CA8FFF70FFF0C9E0D9F0022A3
:1014C0000023089209936268EFF3108A72B61368DA
:1014D000002BFCD0BFF35F8F23689B465D7B002D04
:1014E00000D063E700239846002600206368BFF31E
:1014F0005F8F00221A608AF31088002ED8D04B46E6
:101500001F022F4341463800B0470690079162689A
:10151000EFF3108A72B61368002BFCD0BFF35F8F15
:10152000079B002B00DA83E7079B002BA6DD2369CE
:10153000002BA9D0BB4219D10CA8FFF7CDFE0C9A05
:101540000D9B06980799009001910CA8FFF77CFD70
:101550000C9A0D9B002104910131039102954146A3
:10156000019100962000FFF7C9FE98E70B4B084A4F
:101570000848A42100F010FF0FB0F0BCBB46B246F3
:10158000A946A046F0BDC046100D0020EC5000104A
:101590004C520010484F0010045100101051001020
:1015A00010B50C4B5B68002B04D00B480A21FFF7E9
:1015B000CDFC10BD074C094A20682300102100F023
:1015C00070FB032000F096F903212000FFF74CFE8A
:1015D000EBE7C046840200203C0F0020F50F00100E
:1015E00010B5064B5B68002B01D0044810BD044BBE
:1015F000044A05485E2100F0CFFEC0468402002068
:101600004C510010B0510010484F0010F0B5DE46AC
:1016100057464E464546E0B58DB0060090461F0041
:10162000169B9A46179B994618AB1B78079327235E
:1016300002AA9446634400221A7021E0010030009F
:10164000FFF7FAFD00783CE00698002B5CD0079B82
:10165000002B59D04946D04704000D0003000B432E
:1016600059D0002940DB08A8FFF736FE089A099BED
:101670000094019508A8FFF7E7FC089B9846099F8E
:101680007268EFF3108B72B6136859424B41D9B2AE
:101690000691002BF8D1BFF35F8F273302AA94463F
:1016A000634404930023039302934B4601935346F0
:1016B000009342463B003000FFF720FE0400051E69
:1016C000BCD17368BFF35F8F002119608BF3108862
:1016D000002D17D0272302AA944663441B78002BC1
:1016E000B2D100022043B0E700236242AB41009236
:1016F000019342463B0008A8FFF7A6FC089B9846CA
:10170000099FBDE7012040420DB0F0BCBB46B24688
:10171000A946A046F0BD0698F6E7F0B5C64600B566
:1017200084B00500884616001F000AAB1C78FFF73E
:1017300057FF0294019700962A004346FFF766FF81
:1017400004B080BCB846F0BDF0B5C64600B5050093
:101750000C1E42D04268EFF3108772B61368002B5C
:10176000FCD0BFF35F8FE6B22B68984631001800BB
:10177000FFF79CFC00282AD02B69A34213D0240A2F
:10178000E4B231002800FFF757FD0378A34211D0DF
:1017900000206B68BFF35F8F00221A6087F3108808
:1017A00080BCB846F0BD0E4B0E4A2C210E48FF31CE
:1017B00000F0F2FD3100404600F012FB0028E8D1B5
:1017C0000A4B084A99210848490000F0E5FD2B69B9
:1017D000A342DED100232B61DBE70020E0E7C04617
:1017E0007051001098510010484F00109451001093
:1017F00010B50400FFF7F4FE2100FFF7A5FF10BDB0
:1018000030B583B005000C00EFF30583002B0FD13A
:101810000B4A00230093FFF780FF00280BDD20BF59
:10182000FFF7E6FF28002100FFF7B4FB03B030BD4F
:10183000FFF7B0FBFAE728002100FFF7ABFBF5E765
:10184000A912001010B5002B02DB0260436010BD2E
:10185000024B034A03483F2100F09EFD844F0010D5
:1018600020530010A04F001070B5EFF30580103822
:10187000EFF3108C72B6194B1B68002BFBD0BFF333
:101880005F8F01221300834015494B6315490B609C
:10189000154909780C00C440224213D0104A546AFA
:1018A000124A8500AA58944205D3114AAA580E4CF0
:1018B0009943217007E00A4A031D9B0099589950EB
:1018C000002200E00022BFF35F8F044B002119606B
:1018D0008CF31088002A00D0904770BD280100D0FA
:1018E000004005403C700540550F0020400F00208F
:1018F000840C002010B50100024A034B1800FEF7CB
:10190000D5FF10BD74520010500F0020044B5B6ACD
:10191000034A906A1900536A9942F9D17047C04648
:1019200000400540084B5B6A01E0074B5B6A8B4255
:10193000FBD301E0044B5B6A8B4203D1024B9B6AF1
:101940008342F7D37047C04600400540F0B583B0EE
:1019500004000D00FFF7DAFF06000F0022002B0045
:1019600092197B41994202D804D1904202D90122B6
:101970005242D3176846FFF765FF00980199FFF7B9
:10198000D1FF03B0F0BD000010B5002807DB064B07
:101990009A6A054B9B6A9B1A8342FAD310BD0021B9
:1019A000FFF7D4FFFAE7C0460040054010B50A4BE8
:1019B000984207D843011B1A9B001818C000FFF774
:1019C000E3FF10BDFA2292000023002102F05EFA2C
:1019D000FFF7BCFFF5E7C0469BC4200070B50400CC
:1019E0000E00EFF3108572B61B4B1B68002BFBD06B
:1019F000BFF35F8F002E1CD02000FFF723F8174B9A
:101A000083420BD019002000FFF724F801212000A9
:101A1000FFF710F80123A340114A1360114BA400F3
:101A2000E650BFF35F8F0C4B00221A6085F31088DD
:101A300070BD0C4BA2000021D1500122A2400A49E6
:101A40000B7893430B7005492000FFF735F900210F
:101A50002000FEF7EFFFE4E7280100D0691800102E
:101A600038600540840C0020550F0020F0B5DE469C
:101A700000B584B00400150001921E000293FFF728
:101A800045FF03958E4202D84ED185424CD9EFF3E3
:101A9000108B72B6274B1B68002BFBD0BFF35F8FF8
:101AA000254A17780125A540EBB23B431370234B21
:101AB0005D63221D92000199D150214AA100029834
:101AC00088501B6A2B4212D11C4B1B6C2B4208D036
:101AD0000020BFF35F8F174B00221A608BF3108832
:101AE00023E0184B184A1948C52100F055FCFFF7B0
:101AF0000DFF8E4214D802D1039B834210D80E4BA7
:101B00001B78BB420ED00D4B1D625D631F2222402D
:101B1000012393400E4A1360074B1F700120D8E742
:101B20000020D6E70120D4E7012004B080BCBB46EA
:101B3000F0BDC046280100D0550F002000400540F0
:101B4000400F00209852001004530010BC520010A7
:101B500080E200E0EFF3108C72B60B4B1B68002B99
:101B6000FBD0BFF35F8F01238340084A136208490B
:101B70000A789A430A70BFF35F8F034B00221A6002
:101B80008CF310887047C046280100D00040054003
:101B9000550F002010B5002908D0037B8B4205D3D8
:101BA00000684B005B18033BC01810BD024B034A92
:101BB0000348682100F0F0FBEC4F0010285400109F
:101BC00008500010F8B506000C001500FFF7E2FF02
:101BD0000700002C0DD0002D11D0AC4215D02900EB
:101BE0003000FFF7D7FF84703B78002B13D13D7096
:101BF000F8BD0A4B0A4A0B486F2100F0CDFB0A4B97
:101C0000074A0848702100F0C7FB084B044A054802
:101C1000712100F0C1FB43703D70E9E7585000109E
:101C20001454001008500010645000107050001040
:101C300070B506000D001400002914D0002A14D03D
:101C4000436880689847002806D0220029003000A9
:101C5000FFF7B8FF280007E02A0021003000FFF757
:101C6000B1FF200000E0100070BD0800FCE770B577
:101C700005000023437301338373037BC373012483
:101C800006E021002800FFF785FF0134E4B244702C
:101C9000297BA142F5D82800FFF77CFF0023437081
:101CA00070BD10B5017342608360FFF7E0FF10BDA7
:101CB000F0B5C64600B505000C1E03D1200080BC5F
:101CC000B846F0BDFFF766FF4678002EF6D031002B
:101CD0002800FFF75FFF47780023984643702100F4
:101CE0002800FFF757FF43464370320021002800C9
:101CF000FFF79EFF040039002800FFF7D9FF02001C
:101D000021002800FFF794FF0400D7E7F0B5C6468E
:101D100000B504000D001700002927D0FFF73AFF97
:101D20004378002B28D18378002B2BD10178200019
:101D3000FFF7BEFF06008046002F0AD0E17B002996
:101D400026D1A37B002B03D1E37B002B25D1A573E8
:101D5000E5734346002B26D129002000FFF71AFF28
:101D600000234370300080BCB846F0BD114B124ACE
:101D70001248382100F010FB114B0F4A0F483A214E
:101D800000F00AFB0F4B0C4A0C483B2100F004FB0F
:101D90002000FFF7FFFE4570D3E70B4B064A0748CC
:101DA000422100F0F9FA31002000FFF7F3FE002392
:101DB0008370D1E7385300100054001040530010D6
:101DC0007C530010A4530010B050001070B50400F4
:101DD0000A00457B2900FFF799FF6073280070BD5A
:101DE00070B506000C1E40D0437B8B4207D0FFF736
:101DF000D1FE05008178002906D1002036E00121BE
:101E0000FFF7E4FF012031E03000FFF7C3FE017867
:101E1000A1420DD03000FFF7BDFE4178A1420AD0AB
:101E20000029F7D1124B134A13486B3100F0B4FA72
:101E30006B78037001E06B7843700023AB706B70BC
:101E4000012221003000FFF761FF0200717B814217
:101E500005D03000FFF7ECFE7073012006E0074B61
:101E6000044A0548712100F097FA002070BDC04671
:101E7000D04D0010E853001040530010C85300101C
:101E800010B5C3898B4204D34368828951435818E3
:101E900010BD034B034A0448192100F07DFAC046E7
:101EA000345400108C54001050540010F8B5040045
:101EB0000D000CE0E7899F421AD1002A31D0236837
:101EC000BFF35F8F0021196086F3108820BF21685F
:101ED000EFF3108672B60B68002BFCD0BFF35F8F58
:101EE00021896389CB1AE5D5E7890137DB19E1E759
:101EF0002000FFF7C5FFA289290002F053F82389CB
:101F000001339BB2E289934200D9002323812368E5
:101F1000BFF35F8F00221A6086F3108840BF012054
:101F2000F8BD2368BFF35F8F0021196086F3108826
:101F30001000F5E7F8B504000D000BE0002B1AD1F6
:101F4000002A32D02368BFF35F8F0021196086F327
:101F5000108820BF2168EFF3108672B60B68002B43
:101F6000FCD0BFF35F8F238961895B1AE6D5E789CF
:101F70000137DB19E2E72000FFF782FF0100A289A9
:101F8000280002F00FF8638901339BB2E289934283
:101F900000D9002363812368BFF35F8F00221A609A
:101FA00086F3108840BF0120F8BD2368BFF35F8F20
:101FB0000021196086F310881000F5E770B5040061
:101FC0000D0016001900FEF7C1FF701C290001F07A
:101FD000D1FF6060E681A58100232381638170BD0C
:101FE00010B50022FFF762FF10BD10B50022FFF709
:101FF000A1FF10BDF8B5DE4657464E464546E0B552
:1020000006000F0015000A9A934250D31A0E92460A
:102010001B0298460A9A00234046514601F0DCFB19
:1020200081467400A419A4002F4B9C466444636845
:10203000834200D26060331FDBB29B46012B3CD948
:10204000C0239B012343802212011A60274BB20058
:10205000D158002907D0586901F080FB01304300B6
:102060001B18033BFDD26D0123685D40E0222A402E
:1020700080235B0123431A605A46012A28D9802312
:102080009B012343802212011A604B4663604A463B
:1020900000234046514601F09FFB144BB600985177
:1020A0000120F0BCBB46B246A946A046F8BD104B85
:1020B000104A1148332100F06FF9012FC0D1C0231D
:1020C0009B01234303221A60A368DB07FCD5CAE700
:1020D0002168794003220A401A60A3680125BD40A7
:1020E0001D42FAD0CBE7C046008000409C0C002087
:1020F00098540010F4540010AC54001030B583B064
:102100000C2000F00BF9FEF7B1FB00280DD00023E6
:1021100004E02E4A99002E4888500133092BF8D943
:102120002A4B2C4A5A6203B030BD2B4B00229A67CF
:1021300000F0FCF8294B01221A60274B5B6C012B45
:10214000FBD1274B03221A60234B9B6B012BFBD146
:10215000013300930433234A0121234800F04EF851
:1021600005230093214A0121214800F047F8214B23
:102170000093002202210420FFF73CFF1E4D009532
:102180002B00002201210520FFF734FF104C0094A2
:102190002300002200210720FFF72CFF00942300DA
:1021A000002200210820FFF725FF0A4B009323009F
:1021B000002200210920FFF71DFF00952B000022BF
:1021C00000210620FFF716FFADE7C0469C0C00205B
:1021D000006CDC021BB70000008000403CB00040F7
:1021E00030B00040002F685900800240008C8647C4
:1021F00000C00240001BB70040597307F0B5C64647
:1022000000B504000E0017001D00374801F0A6FAC3
:102210008046364BFA18364B9A4239D801003800BE
:1022200001F09CFA0200103A98235B009A4235D8DC
:102230006B1E062B38D8069B013B062B34D83F0972
:10224000474537D32D04069B1B031D432368002BF2
:1022500036DB284B9C4244D080235B01264A136026
:10226000264A1360264A926819009143FAD12660E3
:10227000A060221DC0239B01134321221A60226803
:10228000002AFCDAE56008221A6080BCB846F0BD7E
:102290001C4B1D4A1D48112100F07EF81C4B1A4AA8
:1022A0001A48192100F078F81A4B174A17481C21D0
:1022B00000F072F8184B144A1448232100F06CF80F
:1022C00022683F231340B342C3D1A3681B051B0DF3
:1022D0008342BED1E368EE22D2021340AB42B8D1B2
:1022E000D3E780239B01B9E7001BB70080E84BD3FD
:1022F00080F8A93200C0024000E0004000F0004039
:1023000000C00040045500102C5600106455001009
:10231000A8550010C45500101056001080239B00D3
:102320000343014AD362704700800540064BAA224E
:1023300012011A602F22DA60044B054A1A60024B20
:102340005B68002BFBDA70470040024000600240EF
:1023500000B0FA0000BEFDE703000A4A1268002A36
:1023600008D0084A1068C318074A9A4206D3054A9B
:1023700013607047034A05491160F2E701204042AB
:10238000F7E7C0460C0D002000000420580F002085
:1023900010B5FFF7DFFF000030B583B00D00190066
:1023A000002A0BD0074B084C019200932B0002002F
:1023B000200001F071FF0120FFF7CCFF034B1A0052
:1023C000F1E7C04638560010485600104456001039
:1023D00070B52B4B2B4A1A602B4B2C4A1A602C4B96
:1023E0009A682A4B9343FAD12A4C01E008CC9847CB
:1023F000294B9C42FAD3FFF781FE234B274A1A60F0
:10240000234B9B68DB43DB01FAD1254B40229A67C3
:102410005A671A67DA66234C09E0234B234A24489B
:102420008721FFF7B9FF2000FEF798FD0834214B04
:102430009C4209D22368002BF5D0012BEDD120005E
:10244000FEF799FD0834F2E71B4DA9681B4CC0222A
:10245000200001F0A7FDAC60EFF30583002B00D056
:1024600000BEFEF73DFAFEF763FDFFF799F8144C46
:1024700001E008CC9847134B9C42FAD370BDC0468C
:1024800000E00040BFCDFBFE00F00040FE7F3C00BE
:1024900000C00040180B0020280B0020FFFFFF01A8
:1024A00000F00140100B002078560010F456001088
:1024B00098560010180B002000ED00E000000020EE
:1024C000280B00202C0B00200FB400B583B0084867
:1024D00001F0B2FE049B002B07D005A90191180062
:1024E00001F0BAFE034801F0A7FE0120FFF732FF1A
:1024F000E0560010F0560010704710B5002802D0CA
:102500000B684968984710BD0100002007E0830070
:102510001B185B00501C08601078C01830380A681F
:102520001378303BDBB2092BF1D97047F0B5DE46AA
:1025300057464E464546E0B583B093461F000C9B78
:102540009A460D9C0E9B99460F9B9B0703D0B8465D
:102550000F00060022E00192A34688464E46B94687
:102560000700B44207D2551C4B4641462020B847CD
:1025700001342A00F5E73D004F465C46019B9B462F
:10258000B1464646B84637002E0007E0013C551CD0
:102590005346185D43463900B0472A00002CF5D158
:1025A00035003E0047460F9B9B0707D4100003B041
:1025B000F0BCBB46B246A946A046F0BDB0464E466A
:1025C000B9462F005D46531BB342EFD2541C4B4615
:1025D00041462020B8472200F5E7F0B5CE464746F1
:1025E00080B585B0944698460C9D0D9C0EAB1B782B
:1025F0009946109A119B129EB7071CD4002B0CD041
:10260000F7070AD54F46002F02D10C37374204D0C6
:10261000013B02E030272F550134944201D21F2C98
:10262000F8D9F70707D59C4205D21F2C03D83027CD
:102630002F550134F5E7F70612D5770505D4002CA0
:1026400003D0944221D09C421FD00F9A102A32D03E
:102650000F9A022A37D01F2C0AD830222A5501346B
:102660001F2C05D84A46002A33D02D222A55013482
:10267000039602930194009543466246FFF756FF86
:1026800005B0C0BCB946B046F0BD621E012C10D0EA
:102690000F9F102F0BD014000F9A102AD8D1B2061A
:1026A000D6D51F2CD4D858222A550134D3E7023C62
:1026B000CBE71400C9E7B206EED41F2CECD8782281
:1026C0002A550134C7E71F2CD2D860322A5501346D
:1026D000C1E7720703D52B222A550134C8E7320718
:1026E000C6D520222A550134C2E7F0B5DE4657464A
:1026F0004E464546E0B593B081468A460892099316
:102700001CAB10CB1B789B461E9D219B9846002C32
:1027100003D1102342469A4390468023DB0046466D
:102720001E4042461A4212D0002C22D000260EE053
:102730003033D9B2771C0AAB99552900200001F03B
:102740000DF8AC4216D31F2F14D83E000400290008
:10275000200001F003F8CBB2092BE9D942469206DA
:1027600005D54121C918C9B20A39C9B2E2E76121C8
:10277000F8E7270043460693209B05931F9B04938D
:1027800003955B46029301970AAB0093099B089A55
:1027900051464846FFF721FF13B0F0BCBB46B24696
:1027A000A946A046F0BDF0B5DE4657464E46454622
:1027B000E0B597B00A900B910C929A46209B9946EF
:1027C000219F22AA13789B46249B0993259C289B32
:1027D00098464A463A4302D11032934398468022A3
:1027E000D20045461540434613420AD04A463A4372
:1027F00041D000252E0053460D934D46099B9A4625
:102800001BE02E0053460D934D46099B9A4614E05B
:102810003033DAB2731C99460EAB9A5552462300F8
:102820002800390000F0D8FFBC4226D819D04B460A
:102830001F2B1CD84E4605000F00524623002800CF
:10284000390000F0C9FFD3B2092BE1D94246920604
:1028500005D54122D218D2B20A3AD2B2DAE76122C1
:10286000F8E7AA45E3D94E460D9B9A4608E04E4646
:102870000D9B9A4604E0002602E04E460D9B9A46C8
:1028800043460693279B0593269B0493099B03933A
:102890005B46029301960EAB009353460C9A0B993C
:1028A0000A98FFF79AFE17B0F0BCBB46B246A9469D
:1028B000A046F0BDF0B5DE4657464E464546E0B56B
:1028C00091B0804689460C929A461A9C1B9D220024
:1028D0002B002000290001F0FAF9002800D0ECE0DC
:1028E00001225242D44B2000290001F0EBF90028CC
:1028F00000D0E2E001225242D04B2000290001F03A
:10290000CBF9002800D0D8E00022002320002900C5
:1029100001F0C2F9002800D0E4E006940795802376
:10292000DB001E9A1A400D921E9A1A4201D106230C
:102930001C930698079902000B0008920993030064
:102940000A00024300D1D9E0080D4005400DBC4EFD
:10295000B44660440A03120B1E00BA4B13431F0017
:1029600001F0C8F9B84AB94B01F057F9B84AB94B68
:1029700001F034F9089009910022B74B300039007A
:1029800001F027F9B54AB64B01F047F902000B00F8
:102990000898099901F022F901F0C4F9834601F081
:1029A000A9F906000F00AF4AAF4B01F036F900223B
:1029B000AE4B01F013F901F0B5F90890AC4AAD4BFC
:1029C0003000390001F029F906000F00089801F0E5
:1029D00091F9A94AA94B01F020F902000B0030003F
:1029E000390001F0F6F806000F0002000B0001F0BC
:1029F00014F90A900B91089BA14A94466344002164
:102A00000022089109921B050993002308933200C4
:102A10003B003000390001F0E1F80E900F913200D8
:102A20003B0000208021C90501F0D3F806000F000B
:102A30000022944B0A980B9901F0D5F80022924B92
:102A400001F0CCF802000B000A980B9901F0CBF8CA
:102A500000228E4B01F0C2F802000B000A980B997D
:102A600001F0C1F802000B003000390001F0B6F8A7
:102A700002000B000E980F9901F0B5F80022714B7F
:102A800001F0ACF8089A099B01F0C7F806000F00A6
:102A900008960997069A079B01F014F900282FD091
:102AA00001235B429C46E3440022774B300039000F
:102AB00001F099F80890099122E01E9B04931D9B58
:102AC00003931C9B02930094019553460C9A49462C
:102AD000404600F0FFF811B0F0BCBB46B246A94634
:102AE000A046F0BD002100220691079206948023A3
:102AF0001B069C46AC446346079310E700239B46A5
:102B00005B466333C62B20D804261E9B1B0528D5A5
:102B1000089A099B190011430FD05D4A5D4B069836
:102B2000079901F0C7F800287AD000225A4B06987E
:102B3000079901F0B1F8002872D01C9B5B4506DDB7
:102B40005A469B1A013B1C9303E00526DDE7002350
:102B50001C938023DB001E9A1A431E92002600233A
:102B60009B461D9B9E4265D29F1B02231E9A1A40C4
:102B70000A921E9A134202D0002E00D000275B4614
:102B8000002B07D0089A099B0698079901F02BF8AB
:102B900006900791002200232000290001F07CF814
:102BA000002800D07CE03D4B1E9A1340049303970D
:102BB0001C9B0293069B079C0093019453460C9A1E
:102BC0004946404600F086F8002E00D183E71E9B60
:102BD0009B0671D54525441C5346020049462800F2
:102BE000C0475A46D317D2185A4005230593013ED1
:102BF0000496002303930A3302935B46DB0F019391
:102C000000925346220049464046FFF76EFD0A9B5C
:102C1000002B00D15FE7020047460C9E1D9D53E04C
:102C20001C9B002B9DD00D9B002B9AD01C9B013B25
:102C30001C9396E7002798E7FFFFEF7FFFFFEFFF6A
:102C400001FCFFFF0000F03FFB799F501344D33F8E
:102C5000B3C8608B288AC63F0000F83F61436F63AA
:102C6000A787D23F71A379094F930A400000E03F44
:102C70001655B5BBB16B0240EF39FAFE422EE63F66
:102C8000FF03000000002C4000002440000018401A
:102C90002D431CEBE2361A3F80842E41FFF7FFFFE5
:102CA000069C079D2200290080200006844661447E
:102CB0000B000692079376E765258CE7541C534674
:102CC00049462020B8472200931BAB42F6D31000A0
:102CD00001E7C046F0B5DE4657464E464546E0B5EC
:102CE00095B00690079193469946209F1E9A1F9B88
:102CF0001000190000F0EBFF002831D101225242F0
:102D0000BF4B1E981F9900F0C7FF002837D1012242
:102D10005242BC4B1E981F9900F0D4FF00283DD1B1
:102D20000022B94B1E981F9900F0CCFF002850D10B
:102D30000022B64B1E981F9900F0AEFF002848D124
:102D4000002200231E981F9900F0A6FF002850D1F2
:102D500000239846229B5B0500D4B6E0002458E08F
:102D6000229B0393219B029303230193A84B00937F
:102D70004B465A4607990698FFF7D8FB0EE1229B6F
:102D80000393219B029304230193A24B00934B4690
:102D90005A4607990698FFF7C9FBFFE00423229AD9
:102DA0001A4022990B4210D09B4B002A0FD00422CC
:102DB0002299039121990291019200934B465A4620
:102DC00007990698FFF7B2FBE8E0944BEDE7032282
:102DD000EEE7229B0493219B039302971E9B1F9C6B
:102DE000009301944B465A4607990698FFF762FDF7
:102DF000D4E01E9A1F9B0020002100F0EAFE1E90E6
:102E00001F9101239846A5E70CAB30221A55013FCC
:102E100001341F2C01D8092FF6D81E981F9900F0F5
:102E200081FF050000F066FF02000B001E981F994D
:102E300000F0CFFE7A4BFA009B181A685B680A9282
:102E40000B9300F0EAFE0890099100F08FFF060056
:102E500000F04CFF02000B000898099900F0B9FE41
:102E60000890099100226F4B00F02CFF00282ED013
:102E70000136300000F03AFF02000B000A980B996F
:102E800000F010FF002801D001350026002F2CD1C2
:102E9000280000F02FFF02000B001E981F9900F081
:102EA00098FE06000F0000225E4B00F0F5FE0028A1
:102EB00046D100225B4B3000390000F003FF0028B0
:102EC0003ED1EB073CD501353AE0062746E7002224
:102ED000544B0898099900F0DFFE0028D6D1002E47
:102EE00001D0F307D2D50136D0E7AA461F2C11D85E
:102EF000013F0A21300000F031FC651C30310CAB81
:102F000019550A21300000F029FC092E0ED90600BF
:102F10002C00EBE755461F2C0CD87B1E002F09D048
:102F20000CAA302111551F000134F4E72B0055463F
:102F30001C00F0E71F2C03D80CAB2E221A550134CD
:102F40001F2C10D80A21280000F0E0FB661C30314D
:102F50000CAB19550A21280000F0D8FB051E01D042
:102F60003400EDE734000323229A1340012B1CD0D8
:102F70001F2C06D84346002B32D00CAB2D221A55FD
:102F80000134229B0393219B029301940CAB009389
:102F90004B465A4607990698FFF7C8FA15B0F0BC99
:102FA000BB46B246A946A046F0BD219B002B13D0DC
:102FB0004346002B02D10C3313420FD0219B013B1F
:102FC0002193190003E00CAB30221A5501348C42D6
:102FD000CED21F2CF7D9CBE72199F8E72199F6E754
:102FE000229B5B0704D50CAB2B221A550134C8E792
:102FF000229B1B07C5D50CAB20221A550134C0E714
:10300000FFFFEFFFFFFFEF7F65CDCD4165CDCDC168
:103010001057001014570010045700100C570010E0
:10302000B85800100000E03FF0B5DE4657464E4667
:103030004546E0B593B082468846934611930029F1
:1030400000D106E300255646119B1878002800D1D0
:1030500002E3252809D06C1C5B462A004146B04794
:10306000119B013311932500EEE7013311930027E3
:1030700020E001231F4301321192012418E00223B2
:103080001F4301321192012412E004231F43013235
:10309000119201240CE008231F43013211920124F4
:1030A00006E010231F4301321192012400E00024A6
:1030B000002C09D0119A1378203BD9B21029F6D8E8
:1030C0008B00C449CB589F46119B1A781300303BA4
:1030D000DBB2092B10D92A2A13D00B94119B1A7832
:1030E0002E2A1ED0119A1378683BD9B2122959D8CA
:1030F0008B00B949CB589F4611A8FFF705FA0B90F2
:10310000ECE71C9B1A1D1C921B68002B04DB0B9325
:10311000119B01331193E1E7022217435B420B93AA
:10312000F6E78022D20017435A1C11925A781300F6
:10313000303BDBB2092B0BD92A2AD3D11C9B1A1D99
:103140001C921C68002C08DB119B01331193C9E70A
:1031500011A8FFF7D9F90400C4E70024F4E780239D
:103160005B003B43511C119151786C2901D01F0029
:1031700018E0C0239B001F430232119212E080230B
:103180003B43511C11915178682901D01F0009E07F
:10319000C0231F430232119204E080235B001F43CF
:1031A00001321192119B1878672816D8252826D34A
:1031B0000300253BDAB2422A21D89300874AD3582C
:1031C0009F4680239B001F4301321192EAE7802330
:1031D0005B001F4301321192E4E778280FD8692879
:1031E0000DD30200693AD2B2012393407C4A1342C4
:1031F0000FD11A0600D507E25B0500D594E16C1CDF
:103200005B462A004146B047119B013311932500CC
:103210001AE778280AD062283AD06F283BD058287D
:103220003CD010239F43063B9C4601E010239C4664
:10323000582836D0692803D0642801D00C2297433F
:103240007A0501D50122974369282DD064282BD017
:10325000BA0500D5A2E0FA0500D5C3E07A0600D48D
:10326000D5E01C9A111D1C911168FF220A40059798
:103270000B9B0493039463460293002301930092F3
:103280005B462A0041463000FFF72FFA05002AE08E
:1032900002239C46CCE708239C46C9E710239C46A2
:1032A000C6E720221743C5E7BA0520D4FA0550D453
:1032B0007A0666D51C9A111D1C911168FF220A40DE
:1032C000D0171118414005970B9B04930394634654
:1032D0000293D20F019200915B462A0041463000D2
:1032E000FFF703FA0500119B01331193ACE61C9A1A
:1032F000073207218A43110008311C911168536875
:103300009946DB170C930D930C9A0D9B10004840C7
:103310000E904A4653400F930E980F990C9A0D9BAE
:10332000801A99410E900F9108970B9B0793069472
:1033300063460493002305934B46DA0F02920090F4
:1033400001915B462A0041463000FFF72CFA050048
:10335000C9E71C9A111D1C911268D0171118414021
:1033600005970B9B0493039463460293D20F01923B
:1033700000915B462A0041463000FFF7B6F9050090
:10338000B1E73A0605D51C9A111D1C910023D25EA7
:1033900096E71C9A111D1C91126891E71C9A07323E
:1033A00007218A43110008311C9108970B9B079352
:1033B00006946346049300230593029353681268AE
:1033C000009201935B462A0041463000FFF7EBF97B
:1033D000050088E71C57001060570010AC5700101C
:1033E000419000001C9A111D1C9105970B9B0493A2
:1033F00003946346029300230193136800935B4692
:103400002A0041463000FFF770F905006BE73A06E5
:1034100006D51C9A111D1C9112681204120C26E785
:103420001C9A111D1C91126821E7462819D01C9B7B
:103430000733072293431A0008321C9204970B9A11
:10344000039202941A685B68009201935B462A001B
:1034500041463000FFF73EFC0500119B01331193FC
:10346000F2E520231F43E2E7672801D0472802D175
:1034700080231B011F43452801D0472801D1202369
:103480001F431C9B0733072293431A0008321C92E8
:1034900004970B9A039202941A685B680092019356
:1034A0005B462A0041463000FFF704FA0500119BF5
:1034B00001331193C8E502231A003A4091463B427A
:1034C0001DD001241C9B1A1D1C926F1C18785B4692
:1034D0002A004146B0474B46002B14D1119B0133C3
:1034E00011933D00B0E5571C5B4641462020B04794
:1034F00023003A005C1C9D42F5D81500E2E7012349
:103500002A000B9DF6E73A00B1460B9E06E0571CD9
:103510005B4641462020C8472C003A00651CA64265
:10352000F5D817004E46D9E71C9B1A1D1C921B6844
:103530009A46002C25D101225242534601E0013324
:103540000A001978002902D0511E002AF7D15246EC
:103550009B1A8022D200390011408946174202D0BE
:10356000A34200D9230002221100394010913A42AF
:1035700009D02A00250057469A4633004E46994600
:1035800021E02200D9E72A004546A04606E0541C67
:103590005B4629002020B0473B0022005F1C0B99AE
:1035A0009942F4D84446A8463B00250057469A461F
:1035B00033004E46994606E01D000137541C5B4619
:1035C0004146C84722003878002804D0002EF4D0A5
:1035D0006B1E002DF0D1150053464E46109A002A5E
:1035E00003D1119B013311932EE50B9F2A0006E0B6
:1035F000551C5B4641462020B04723002A005C1C36
:103600009F42F5D81500ECE721233B431C9A111D7E
:103610001C911268059308230493039408330293C2
:103620000023019300925B462A0041463000FFF7D9
:103630005CF80500119B0133119305E56C1C5B469A
:103640002A0041462520B047119B013311932500E4
:10365000FAE40B4B9A46F5E4B2465D450DD35B4662
:103660005A1E5B4641460020D047280013B0F0BCEC
:10367000BB46B246A946A046F0BD2A00F1E7C046C7
:10368000F924001000B585B002900391012104488F
:10369000009313004A4202A9FFF7C6FC05B000BD23
:1036A000FB24001001480421014B1847B002002000
:1036B000D536001010B5010018231B88142210887D
:1036C000984710BD10B5010018231B8816221088DA
:1036D000984710BDF0B5C64600B507000E0000259E
:1036E0000123984600E00135B5420AD2AC003C19EE
:1036F0002068FFF7DFFF20600028F4D10023984600
:10370000F1E7404680BCB846F0BD0000124A936F16
:103710009B0815D29066D166002905D0FFE7FFE728
:10372000FFE7516F106F704704B580210906C2177B
:103730005140002800D0C84301F036FA002104BDF2
:10374000F0B5146E556E576F166FFFF7E3FF1466F2
:10375000556657671667F0BD000000D0114A936F99
:103760009B0813D210665166002905D0FFE7FFE7DA
:10377000FFE7516F106F704704B5002801D000209B
:10378000C04301F011FA002104BDC046F0B5146E2B
:10379000556E576F166FFFF7E5FF1466556657674E
:1037A0001667F0BD000000D094464A4A926F920816
:1037B000624601D228E0C046F0B5464E346E756EC2
:1037C000776F366F00F020F89446424A14665566CB
:1037D000576716676246F0BD94463E4A926F92085C
:1037E000624601D254E0C046F0B53A4E346E756E72
:1037F000776F366F00F04CF89446364A146655667B
:10380000576716676246F0BD002B24DB11D00029F4
:103810003EDA00B5C943404200D1013100F038F82A
:10382000C943404200D10131DB43524200D1013350
:1038300000BD002AEBD1002801D1002905D00020CD
:10384000C90FC90701D1C043410800B501F0A4F96F
:103850000022002300BD00B500290ADBDB435242F1
:1038600000D1013300F014F8C943404200D10131C6
:1038700000BDC943404200D10131DB43524200D177
:10388000013300F005F8DB43524200D1013300BDA3
:10389000002923D1002B18D1002A0CD0BC460D4F93
:1038A00038667A6600210023FFE7FFE7FFE77A6FBB
:1038B000386F67467047002801D00748010000B5FF
:1038C00001F06AF90022002300BD02000B00002075
:1038D00000217047000000D0FFFFFFFF002B00D049
:1038E000BFE0130C28D1002AE7D080B4114F39660D
:1038F0007A66FFE7FFE730B4040C7B6F396F1B0477
:1039000023433B667A66FFE7FFE7FFE7C04684B2E2
:103910007B6F3D6F1B0423433B667A66FFE7FFE73F
:10392000C04600232C042D0C7A6F386F00196941B2
:10393000B0BC7047000000D0F0B594460025140ECE
:1039400001D112020835140F01D112010435940F70
:1039500001D192000235D40F01D152000135D40BB0
:103960000134254F7C66254C3C660E0C93B2FFE774
:10397000FFE7FFE73C6F6643360C7703BE467343B1
:10398000DF0B5B04C01AB941130C7343DB18C91A6F
:10399000CE086643360CB64493B273431F0F1B0127
:1039A000C01AB941130C73431F0B1B05C01AB94150
:1039B000860D8F023E436643360C092D24DB520AE6
:1039C0007243801A7703460A6643360C16235B1B44
:1039D000DE40DF40BF1964466643821B70460435F3
:1039E00006330100D940A840C01900D30131A242DA
:1039F00006D20023F0BD0000000000D0FFFFFFFF53
:103A0000121B0130F3D3F1E709277F1BFE40644608
:103A1000A2B27243801A00D20139220C7243130CF5
:103A20001204821A99410B007046043513370100C5
:103A3000F940A840801900D30131002B02D1A242E5
:103A40000AD2F0BD013000D30131121BFAD2013B82
:103A5000F8D1A24200D2F0BD013000D30131121BD7
:103A6000F7E7F0B51C0C00D080E00CB400251C0A70
:103A700004D11B02160E3343120208351C0B04D16D
:103A80001B01160F3343120104359C0B04D19B001C
:103A9000960F334392000235DC0B02D192185B4142
:103AA00001351C00971864410134464F7C66464C32
:103AB0003C660E0CFFE7FFE7FFE7C0463C6F66433E
:103AC000360C7703BE4697B27743C01B00D201394C
:103AD000C01B00D201399FB27743C91BC91B170C09
:103AE00077437E04FF0B801BB941CE086643360C3A
:103AF0000C2D33DBB644120B1F053A431B0B97B258
:103B00007743C01B00D201399FB27743C91B170C02
:103B100077433E043F0C801BB941860D8F023E4324
:103B2000664329277F1BFE400C3D7746AF40BF19F7
:103B300030BCA2B2ABB272437343801A9941220CDB
:103B40007243130C1204801A994102000B000137D2
:103B5000001BA941F9D2781E0021F0BD0C277F1B64
:103B6000FE4077467F0BAF40FF19E0E700245D1C65
:103B700007D0144F7D663966FFE7FFE7FFE7FFE7F1
:103B80003C6F95B29EB265436643401BB141150C34
:103B90001E0C6543664336042F0C3E432D04401B28
:103BA000B141994204D202000B0020000021F0BD77
:103BB00001D19042F7D3801A994101349942F2D34E
:103BC000F6E70000000000D0FFFFFFFF4840414043
:103BD000484018B4134B5B68019308BD18B4114BEF
:103BE0001B68019308BD94460F4A926F920805D254
:103BF000624618B40B4BDB68019308BD0A4AF0B566
:103C0000146E556E576F166F6246FFF7F2FF064A45
:103C10001466556657671667F0BD18B4014B9B686C
:103C2000019308BD380D0020000000D0FFB55040C2
:103C30004240504059404B40594000E0FFB5154FBD
:103C40004C00640D03D0BC4204D10C0314D80020F6
:103C5000090D09055C00640D03D0BC4204D11C03AE
:103C60000AD800221B0D1B0501264B4009D44B40EE
:103C700003D58B4200D18242FFBD9942FCD19042D4
:103C8000FFBD0B43DB1803431343F5D0C943491869
:103C9000FFBD0000FF07000000B5FFF7CFFF804128
:103CA00000BDC04600B5FFF7C9FF01D9002000BD27
:103CB000012000BD00B5FFF7B9FF01D9002000BD0C
:103CC000012000BD00B5FFF7B1FF804100BD01201C
:103CD00040054A00121804D85A00121801D80020D2
:103CE0007047012070470020704700000021002825
:103CF00005D17047C1174840401AFAD0C90713B51B
:103D0000064B1B6898470CBC441CA2401005120BC4
:103D10000349091B09051943114310BD380E002042
:103D20001F04000010B54C00620D8023D218DB0088
:103D3000D21A5B057E2A10DD9E3A13DACC170903EE
:103D4000490819435242D140640001341532202AF7
:103D500005DAD0400843604310BD002010BD08467E
:103D6000604310BDC80FC018013810BD18B4024B15
:103D70005B6A019308BD0000380D002010B50148B2
:103D8000FEF7A2FB0859001070B513231C78012C14
:103D900012D0012C12DC214B214A93642148FFF7F9
:103DA00089FC214B186070BD20491D4A9800815044
:103DB00001331F2BF8D9ECE70023FAE71C48FFF783
:103DC00081FC05001B48FFF77DFC023803789B004F
:103DD0007F2B09DD12488022290000F0E3F8022C35
:103DE00008D0022CDADCD6E7134B144A14483221EF
:103DF000FEF7D2FA134B1A88B5231B029A4209D157
:103E0000114B1A88114B9A4204D1114B1A88114B4D
:103E10009A42E6D00020FEF757FBC046593E0010FC
:103E2000380D00204C330000380E00207D3D00107E
:103E3000534400005346000020590010C0590010A0
:103E40007459001054380000D8380000494600006A
:103E50009C3800005946000007B56046002800D194
:103E600000BE01880A0A0230DF2AFAD1C9B28208EC
:103E700004D3028840880004104300E00068024A2E
:103E80005050039007BD0000380D002051434343BC
:103E9000C9188C46110C83B24B4310B4040C614317
:103EA00092B280B2504362431C041B0C001910BC38
:103EB00059411304120CC01851416144704700006D
:103EC00010B50148FEF700FB4456001070B51323EF
:103ED0001E781848FFF7F6FB0500012E11D0012EC1
:103EE00009DDAB1E1B789B007F2B1DDD1248802255
:103EF000290000F057F81148FFF7DCFB104B186061
:103F000070BD0D485422290000F04CF8002300E059
:103F100001331F2BE3D8084A9C00A258002AF7D18E
:103F20000849054AA150F3E7074B084A08484221CF
:103F3000FEF732FA534600003C0E00204C330000DE
:103F4000380E0020C13E0010D4590010545A001001
:103F5000085A001010B5002804D04018034B9842AE
:103F600000D810BD0248FEF7AFFAC046000004209A
:103F7000685A001070B50D0000F09CF9040029008B
:103F8000FFF7E8FF200070BD01480421014B1847EE
:103F9000C0020020D5360010014B1B6818470000F6
:103FA000C0020020014B5B6818470000C0020020DF
:103FB00010B50300080011001B68984710BD0000F1
:103FC000F8B507000D001600437D002B02D0002439
:103FD00000200CE003681100280098472DE03B7D8D
:103FE00010E03B68154802219847601C0134B44238
:103FF00014DA002CF3DD2B19013B1B780D3B5A42E0
:104000005341DBB22A5D0A2AF0D1002BEED1A04247
:10401000E7DA3B68211A28189847E2E7B04203DA4A
:104020003B68311A28189847002E06DDAD19013D6E
:104030002B780D3B5A4253413B75F8BDE05A0010B6
:1040400070B505000368002B16D00C4B1C6805E00A
:10405000290004C92000FFF7B3FF2469002C09D010
:104060002368002BF9D0064B1B68002BF0D0A3422D
:10407000F3D1EDE700232B6070BDC046040D002096
:10408000080D002070B505000C000B68802B05D0D2
:1040900023685A1C2260E418257170BD0800FFF7E0
:1040A000CFFFF5E710B5002B02DB0260436010BDC7
:1040B000024B034A03483F21FEF76EF9844F00107C
:1040C000E45A0010A04F001010B582B00400FDF7B4
:1040D0001DFC02000B006846FFF7E4FF009A019BFD
:1040E00022606360200002B010BD000070B582B095
:1040F000060014001D00FA229200002306980021F9
:10410000FFF7C4FE02000B0012196B41002B09DB04
:104110006846FFF7C7FF009A019B3260736030006A
:1041200002B070BD01225242004BF1E7FFFFFF7F5A
:1041300030B585B004000D0002A8FFF7C5FF029A54
:10414000039B00952000FFF7D1FF200005B030BD94
:1041500000B583B0FA2189006846FFF7E9FF009AAD
:10416000019B024800F028FD03B000BD100B0020A9
:1041700010B5024800F008FD10BDC046100B00202D
:10418000F0B5CE46474680B583B006000D00904698
:104190001C00FFF7DDFF81466B1C05D0002C08D00A
:1041A000194F1A4B1C6807E0300000F08DFB05002A
:1041B000F4E7174FF5E72469002C17D02368002B8C
:1041C000F9D0144B1B68002B01D0A342F3D12A0075
:1041D00031002000B8474346002BECD06B46D91D78
:1041E0000A230B7001222000B847E4E74B46002B5E
:1041F00007D16B1E9D41E8B203B0C0BCB946B046C2
:10420000F0BDFFF7B5FFF4E7B13F0010040D00204B
:10421000C13F0010080D002010B5064B1C6801E0DE
:1042200098472469002C03D06368002BF8D1F8E785
:1042300010BDC046040D002070B5050000F044FB21
:1042400004000023012201002800FFF799FFFFF777
:10425000E3FF200070BD000070B5A2B004000E00A6
:10426000FFF776FF0500002301930A483300220080
:1042700001A9FFF707FA040001A8FFF7E1FEFFF725
:10428000CBFF002D02D1200022B070BDFFF770FFE0
:10429000F9E7C046854000100FB400B583B004A90B
:1042A00001C90191FFF7D8FF03B008BC04B018475B
:1042B00000207047030010B50A0003490868190080
:1042C00000F004F810BDC046D002002010B55143E4
:1042D00000F02AF8041E0ED00300083B5A6803239E
:1042E0009A43043A242A15D80300132A05D8002239
:1042F0001A605A609A60200010BD002108330160E6
:1043000041601B2AF3D98160C160242A06D00300D2
:104310001033ECE70021FFF73FFEECE703000161FB
:1043200018334161E3E7C046F0B54E464546DE46E8
:104330005746E0B50D000B35060083B0162D22D888
:10434000102900D9B2E000F0A9FA102518230220A4
:10435000CC4FFB181A005C68083A944200D1B5E0D3
:10436000032362689A431300E268A168CA609160FF
:104370000122E318596830000A435A6000F090FAAD
:104380002000083095E007239D4300D58EE0A94228
:1043900000D98BE000F082FAFC235B009D4200D242
:1043A000A1E1680A00D18BE0042800D974E1382328
:1043B0009846A80980443930C100B24F79184C683A
:1043C0000839A1420ED003239C4604E0002ACBDA30
:1043D000E468A14206D06246636893435A1B0F2AE1
:1043E000F4DD40463A003C690832944200D178E05E
:1043F00003236168994389460B00491B0F2900DD9F
:1044000075E17A613A610029B2DA80229200914521
:1044100000D310E15909DA0801238B40D2007968F2
:10442000D2190B4391687B60E260A1609460CC601C
:10443000012182109140994259D80B4205D10322A3
:104440009043490004300B42FBD003239846C3003D
:104450009946B944CC4682466346DC68A44507D1F8
:1044600026E1002A00DB2FE1E468A44500D11FE12A
:104470004246636893435A1B0F2AF2DD01208046AF
:10448000611905436560A068E5680837C560A860E4
:1044900040461043F960B9604860CF6030008F60DB
:1044A000E25000F0FDF92000083002E00C2300206B
:1044B000336003B0F0BCBB46B246A946A046F0BD8F
:1044C00080213F2340209846890076E7DC6802304F
:1044D000A34200D044E73A003C690832944200D03D
:1044E00086E701217B68821091409942A5D9032378
:1044F000BC6862689A439146954203D8531B0F2BC0
:1045000000DD8AE023004B445F4A01935F4B9346F2
:104510009A4612681B68EB18013200D136E15C4AFA
:10452000944663441B0B1B0300933000009900F07A
:10453000B9F903008046013300D1F3E0019B8342C7
:1045400000D9EDE052460098526803009446514667
:1045500063444B6001991A00414500D14BE15B4631
:104560001B68013300D150E1434601995B1A9A1848
:1045700053465A600723424641461A400192194267
:1045800000D10DE108239846881A424B00998044D7
:1045900041449B1A5B1A1B051B0D0091300019004A
:1045A0009B4600F07FF9431C00D14AE14346C01A04
:1045B00003005B440093534652465B6801215B4411
:1045C000536042464046BA60009A0A434260BC4289
:1045D00000D11EE14A460F2A00D81CE107200C3A00
:1045E000824360680140052011436160A118486062
:1045F00088600F2A00D92FE142464446526851464E
:10460000C96A994201D25146CB625146096B99421F
:1046100000D389E051460B6386E001222900134351
:104620001143651961603000BD606B6000F038F9BE
:10463000200008303DE75A0A042A6BD9142A00D911
:10464000BEE011005C325B31D20008235B429C4625
:10465000BA18944463469A6803239846944500D157
:1046600097E0434651689943494502D99268944579
:10467000F7D1D3689C467B686146A260E1608C609C
:10468000D460D5E608070020000700204C0C00206D
:104690000F10000008100000142852D9542800D927
:1046A00096E06E239846280B80446F30C10084E664
:1046B00008239B46073BDC449B46DA44434652466C
:1046C000134200D0C8E64CE00122E31859683000DC
:1046D0000A435A60E368A268D3609A6000F0E0F889
:1046E00020000830E5E62B00E808083330E6012317
:1046F00060191D43656078613861C26082601A008C
:104700004B460A4342603000E15000F0C9F82000F7
:104710000830CEE69A09110039323831D20094E7D8
:10472000BC4260D0BC68626803239A43531B954225
:1047300002D80F2B00DD70E7300000F0B1F8002048
:10474000B7E65B23984680445C30C10035E6082319
:104750005B429C46E1444B469B6801384B4500D088
:1047600097E043460342F2D17B688B437B6049006C
:10477000994200D9BBE6002904D1B8E60422944648
:104780004900E2440B42F9D0504660E610330093F2
:10479000CBE68910023B8B4079680B437B606BE76B
:1047A000009B300043445B421B051B0D19009B46D8
:1047B00000F078F8431C00D0F8E600239B46FAE6A8
:1047C000542A2AD81A0B11006F326E31D2003CE7FE
:1047D000AA235B0098422AD8DD3B9846E80B804428
:1047E0007830C100E9E553465B68009A9C46534621
:1047F00062445A60B3E6090500D0B0E60200BC6826
:104800004A4401310A436260F9E65B4642461A6057
:10481000B0E64446F3E641608EE7AA2149008A42A9
:1048200024D8DA0B110078327731D2000DE71A4B19
:10483000984224D87C239846A80C80447D30C1003F
:10484000BBE5009A019B94464246083B63449B1A91
:10485000009300239B46AEE621003000083100F0B3
:10486000AFF85346BC685B686268C8E60A498A428A
:104870000BD89A0C11007D327C31D200E5E6FE2186
:104880007E237F209846890097E5FE227E219200B4
:10489000DBE67B686BE7C046540500007047C04606
:1048A0007047C046002370B5064D040008002B6019
:1048B000FDF752FD431C00D070BD2B68002BFBD0D0
:1048C0002360F9E7800C002010B583070AD00300AD
:1048D000032102E001330B4205D01A78002AF9D1F6
:1048E000181A10BD030019680C4A0D4C8A188A4327
:1048F00022420FD15968094A04338A188A43224256
:1049000008D15968054A04338A188A432242F1D0F3
:1049100000E001331A78002AFBD1E1E7FFFEFEFE3A
:1049200080808080F8B50C000500FFF7B7FF204FAE
:10493000BB685E6803239E431E4B341B9C46644445
:10494000240B013C113324039C4207DB0021280087
:10495000FFF7A8FFBB689B19984204D02800FFF717
:104960009FFF0020F8BD28006142FFF79BFF431C1A
:104970000DD00122BB68361B16435E600E4B28002B
:104980001A68141B1C60FFF78BFF0120EAE7002167
:104990002800FFF787FFBA68831A0F2BDEDD07496F
:1049A0000968401A0449086001210B435360D5E7A8
:1049B00008070020EF0F0000500C00200007002027
:1049C000F0B5C64605000C0000B500294FD0FFF732
:1049D00065FF210008394C68012622000320B243FC
:1049E0008F187B688343624898468368BB426AD0CD
:1049F00043467B6026421ED108239C460C688444B3
:104A0000091B12198C6864454FD0CB68E3609C6029
:104A10004346FC186468344211D1BB68554C42448B
:104A2000A34200D17EE0FC68DC60A3600123134355
:104A30004B608A5006E0FC1864683442EDD016439F
:104A40004E603A6080239B009A4213D25409D308E7
:104A50000122A2404468DB002243426018188368A8
:104A6000C8608B608160D9602800FFF719FF80BCA7
:104A7000B846F0BD530A042B3ED8940926003934B9
:104A80003836E40004192368083C03279C4242D0CE
:104A90005868B843904202D99B689C42F8D1DC68C0
:104AA000CC608B60A160D960DEE74346F8184068AF
:104AB000304257D1FB68B86842441643C3609860DF
:104AC0004E608A50D0E713004344264206D10A685C
:104AD000891A8C689B18CA68E260946001221A43A4
:104AE0004A60254A816012689A42BDD8234B28004B
:104AF0001968FFF717FFB7E7142B07D9542B1AD8FB
:104B0000140B26006F346E36E400BBE71E005C33E6
:104B10005B36DC00B6E70122B610B240466832438D
:104B20004260BDE7D9609960CB608B60012313437D
:104B30004B608A5098E7AA246400A34205D8D40B9E
:104B4000260078347736E4009CE70D4CA34205D864
:104B5000940C26007D347C36E40093E7FE247E2608
:104B6000A4008FE7330013434B603A607CE7C046F4
:104B70000807002010070020040700204C0C00202C
:104B800054050000F8B5C04601B40248844601BC93
:104B9000604700BFC901002001B40248844601BC3F
:104BA000604700BF1502002001B40248844601BCE2
:104BB000604700BF1502002001B40248844601BCD2
:084BC000604700BF95010020D1
:104BC80030783163203D3D20282A696E7374293E70
:104BD8003E313175000000002F686F6D652F7375C9
:104BE8006C6F2F7061736B612F7069636F2F7069C1
:104BF800636F2D73646B2F7372632F7270325F63F0
:104C08006F6D6D6F6E2F68617264776172655F6931
:104C180072712F6972712E630000000064656C74F4
:104C280061203E3D202D3230343820262620646510
:104C38006C7461203C3D20323034362026262021F9
:104C48002864656C74612026203129002128646558
:104C58006C7461203E3E2031317529006375727293
:104C6800656E74203D3D205F5F756E68616E646C93
:104C780065645F757365725F697271207C7C2063FF
:104C8800757272656E74203D3D2068616E646C6556
:104C9800720000006972715F68616E6465725F63BB
:104CA8006861696E5F667265655F736C6F745F6873
:104CB800656164203E3D203000000000767461622A
:104CC8006C655F68616E646C6572203D3D205F5F56
:104CD800756E68616E646C65645F757365725F6933
:104CE80072710000212828282875696E7470747202
:104CF8005F7429767461626C655F68616E646C6567
:104D08007229202D20282875696E747074725F745A
:104D1800296972715F68616E646C65725F6368614E
:104D2800696E5F736C6F747329202D203129257388
:104D3800697A656F66287374727563742069727115
:104D48005F68616E646C65725F636861696E5F73EA
:104D58006C6F742929000000216578636570746997
:104D68006F6E207C7C20657863657074696F6E2037
:104D78003D3D206E756D202B20565441424C455FB9
:104D880046495253545F49525100000066616C73A2
:104D98006500000069735F7368617265645F6972BA
:104DA800715F7261775F68616E646C657228736C9D
:104DB8006F745F68616E646C6572290065786365FD
:104DC8007074696F6E000000666F756E6400000095
:104DD8006972715F6164645F7461696C5F746F5F4D
:104DE800667265655F6C697374000000696E73654F
:104DF80072745F6272616E63685F616E645F6C6932
:104E08006E6B00006972715F72656D6F76655F68C1
:104E1800616E646C657200006D616B655F627261E2
:104E28006E6368007265736F6C76655F6272616E3F
:104E3800636800006972715F6164645F73686172BE
:104E480065645F68616E646C657200006972715FA9
:104E58007365745F6578636C75736976655F68619F
:104E68006E646C6572000000746F74616C00000001
:104E78002F686F6D652F73756C6F2F7061736B6121
:104E88002F7069636F2F7069636F2D73646B2F7355
:104E980072632F636F6D6D6F6E2F7069636F5F73D1
:104EA800796E632F6D757465782E63006D74782D37
:104EB8003E636F72652E7370696E5F6C6F636B0013
:104EC8006C6F636B5F69735F6F776E65725F696440
:104ED8005F76616C6964286D74782D3E6F776E65B6
:104EE800722900006D74782D3E656E7465725F637B
:104EF8006F756E74000000006D757465785F657875
:104F0800697400006D757465785F656E7465725FAD
:104F1800626C6F636B5F756E74696C0069642026E0
:104F280026206964203C3D20706F6F6C2D3E6865BB
:104F380061702D3E6D61785F6E6F6465730000006F
:104F48002F686F6D652F73756C6F2F7061736B6150
:104F58002F7069636F2F7069636F2D73646B2F7384
:104F680072632F636F6D6D6F6E2F7069636F5F74FF
:104F7800696D652F74696D652E63000075735F73C5
:104F8800696E63655F626F6F74203C3D20494E54C3
:104F980036345F4D415800002F686F6D652F73756B
:104FA8006C6F2F7061736B612F7069636F2F7069FD
:104FB800636F2D73646B2F7372632F636F6D6D6FE7
:104FC8006E2F7069636F5F626173652F696E636CC2
:104FD8007564652F7069636F2F74797065732E68B7
:104FE800000000006964202626206964203C3D20DA
:104FF800686561702D3E6D61785F6E6F64657300E2
:105008002F686F6D652F73756C6F2F7061736B618F
:105018002F7069636F2F7069636F2D73646B2F73C3
:1050280072632F636F6D6D6F6E2F7069636F5F753D
:1050380074696C2F696E636C7564652F7069636F32
:105048002F7574696C2F70686561702E6800000098
:10505800706172656E745F69640000006368696CF2
:10506800645F696400000000706172656E745F6956
:105078006420213D206368696C645F6964000000F6
:10508800696400006964202626202170685F636FC8
:105098006E7461696E735F6E6F64652868656170B0
:1050A8002C2069642900000021686561702D3E6626
:1050B8007265655F7461696C5F6964002170685F1F
:1050C800636F6E7461696E735F6E6F646528706F6D
:1050D8006F6C2D3E686561702C2072657573655F15
:1050E8006964290072656D6F7665645F6964203D47
:1050F8003D206E6578745F696400000063616C6CC4
:105108006261636B00000000706F6F6C2D3E616C14
:1051180061726D5F696E5F70726F6772657373201D
:105128003D3D206D616B655F7075626C69635F6999
:10513800642869645F686967682C206E6578745FA5
:105148006964290064656661756C745F616C61727D
:105158006D5F706F6F6C5F696E697469616C697A95
:105168006564282900000000616C61726D5F6964E4
:1051780020213D20706F6F6C2D3E616C61726D5FF8
:10518800696E5F70726F6772657373007263000097
:10519800616C61726D5F706F6F6C5F63616E636588
:1051A8006C5F616C61726D00616C61726D5F706FD4
:1051B8006F6C5F6765745F64656661756C74000029
:1051C8006765745F656E7472795F69645F68696743
:1051D8006800000070685F667265655F6E6F646581
:1051E8000000000070685F6164645F6368696C64F4
:1051F8005F6E6F646500000070685F696E7365724A
:10520800745F6E6F6465000070685F6765745F6ED9
:105218006F6465006164645F616C61726D5F756E77
:105228006465725F6C6F636B000000007570646189
:1052380074655F75735F73696E63655F626F6F74C2
:1052480000000000616C61726D5F706F6F6C5F6170
:105258006C61726D5F63616C6C6261636B0000000E
:105268006765745F656E74727900000048617264E6
:105278007761726520616C61726D20256420616CB4
:10528800726561647920636C61696D656400000012
:1052980074696D65725F68772D3E696E7473202638
:1052A800203175203C3C20616C61726D5F6E756DBC
:1052B800000000002F686F6D652F73756C6F2F707D
:1052C80061736B612F7069636F2F7069636F2D73E2
:1052D800646B2F7372632F7270325F636F6D6D6FC3
:1052E8006E2F68617264776172655F74696D65724B
:1052F8002F74696D65722E63000000006861726426
:10530800776172655F616C61726D5F7365745F74FC
:1053180061726765740000007570646174655F751B
:10532800735F73696E63655F626F6F74000000007E
:10533800726F6F745F6964002F686F6D652F737586
:105348006C6F2F7061736B612F7069636F2F706959
:10535800636F2D73646B2F7372632F636F6D6D6F43
:105368006E2F7069636F5F7574696C2F7068656103
:10537800702E63002170685F6765745F6E6F646587
:1053880028686561702C20726F6F745F6964292DBD
:105398003E7369626C696E67000000002170685F87
:1053A8006765745F6E6F646528686561702C20722C
:1053B8006F6F745F6964292D3E706172656E740049
:1053C8006E65775F7375625F7472656520213D2035
:1053D800686561702D3E726F6F745F6964000000CC
:1053E80070685F72656D6F76655F616E645F667227
:1053F80065655F6E6F64650070685F72656D6F7676
:10540800655F616E795F68656164000070685F61FF
:1054180064645F6368696C645F6E6F646500000054
:1054280070685F6765745F6E6F646500696E646558
:1054380078203C3D20712D3E656C656D656E745F0E
:10544800636F756E740000002F686F6D652F73753C
:105458006C6F2F7061736B612F7069636F2F706948
:10546800636F2D73646B2F7372632F636F6D6D6F32
:105478006E2F7069636F5F7574696C2F71756575D0
:10548800652E6300656C656D656E745F707472007F
:105498007372635F66726571203E3D206672657146
:1054A800000000002F686F6D652F73756C6F2F708B
:1054B80061736B612F7069636F2F7069636F2D73F0
:1054C800646B2F7372632F7270325F636F6D6D6FD1
:1054D8006E2F68617264776172655F636C6F636B6E
:1054E800732F636C6F636B732E630000636C6F6361
:1054F8006B5F636F6E6669677572650076636F5F71
:1055080066726571203E3D20285049434F5F504CDC
:105518004C5F56434F5F4D494E5F465245515F4B76
:10552800485A202A204B485A292026262076636F7D
:105538005F66726571203C3D20285049434F5F509B
:105548004C4C5F56434F5F4D41585F465245515F43
:105558004B485A202A204B485A2900002F686F6D63
:10556800652F73756C6F2F7061736B612F70696332
:105578006F2F7069636F2D73646B2F7372632F7253
:1055880070325F636F6D6D6F6E2F686172647761E3
:1055980072655F706C6C2F706C6C2E63000000007D
:1055A8006662646976203E3D2031362026262066D4
:1055B80062646976203C3D203332300028706F7376
:1055C800745F64697631203E3D20312026262070A4
:1055D8006F73745F64697631203C3D20372920263B
:1055E800262028706F73745F64697632203E3D20F0
:1055F8003120262620706F73745F64697632203CF0
:105608003D203729000000007265665F667265718B
:10561800203C3D202876636F5F66726571202F20DD
:1056280031362900706C6C5F696E69740000000087
:105638002C2066756E6374696F6E3A200000000056
:10564800617373657274696F6E20222573222066F8
:1056580061696C65643A2066696C6520222573224D
:105668002C206C696E65202564257325730A00005B
:1056780031203D3D202875696E747074725F7429FD
:105688006C2D3E7370696E5F6C6F636B0000000079
:105698002F686F6D652F73756C6F2F7061736B61F9
:1056A8002F7069636F2F7069636F2D73646B2F732D
:1056B80072632F7270325F636F6D6D6F6E2F7069DA
:1056C800636F5F72756E74696D652F72756E74693C
:1056D8006D652E63000000000A2A2A2A2050414ED8
:1056E8004943202A2A2A0A000A00000072756E74AB
:1056F800696D655F696E697400000000666E692BEC
:1057080000000000666E69006E616E00666E692DAD
:105718000000000096300010AE300010AE300010CF
:10572800A2300010AE300010AE300010AE300010C5
:10573800AE300010AE300010AE300010AE300010A9
:105748008A300010AE3000107E300010AE300010ED
:10575800AE300010723000107E310010A4310010FD
:10576800C2310010A43100105E310010A4310010C5
:10577800A4310010A4310010A4310010A43100108D
:10578800A4310010A43100109A310010A431001087
:10579800A4310010A4310010A4310010A43100106D
:1057A800CE3100103C360010FE310010FE310010E2
:1057B800FE310010FE310010FE310010FE310010E5
:1057C800FE310010FE310010FE310010FE310010D5
:1057D800FE310010FE310010FE310010FE310010C5
:1057E800FE310010FE310010FE310010FE310010B5
:1057F800FE310010FE310010FE310010FE310010A5
:10580800FE310010FE310010FE310010FE31001094
:10581800FE310010FE310010FE310010FE31001084
:10582800FE310010683400102A340010683400106B
:10583800FE310010FE310010FE310010FE31001064
:10584800FE310010FE310010FE310010FE31001054
:10585800FE310010FE310010FE310010FE31001044
:10586800FE310010FE310010FE310010FE31001034
:1058780012320010FE310010FE310010FE3100100F
:10588800FE310010FE310010FE310010FE31001014
:10589800FE310010FE31001012320010B634001034
:1058A80012320010683400102A34001068340010D6
:1058B800000000000000F03F00000000000024404D
:1058C80000000000000059400000000000408F4028
:1058D800000000000088C34000000000006AF84093
:1058E8000000000080842E4100000000D0126341B7
:1058F8000000000084D797410000000065CDCD412D
:105908006D697373696E6720646F75626C65206674
:10591800756E6374696F6E002A282875696E74380D
:105928005F74202A29726F6D5F646174615F6C6FA8
:105938006F6B757028726F6D5F7461626C655F6301
:105948006F6465282753272C2027462729292D32BD
:1059580029202A2034203E3D2053465F5441424CA2
:10596800455F56325F53495A450000002F686F6DF6
:10597800652F73756C6F2F7061736B612F7069631E
:105988006F2F7069636F2D73646B2F7372632F723F
:1059980070325F636F6D6D6F6E2F7069636F5F64D8
:1059A8006F75626C652F646F75626C655F696E698F
:1059B800745F726F6D2E63005F5F61656162695F1E
:1059C800646F75626C655F696E6974002A28287552
:1059D800696E74385F74202A29726F6D5F74616212
:1059E8006C652D3229202A2034203E3D2053465F05
:1059F8005441424C455F56325F53495A45000000B6
:105A08002F686F6D652F73756C6F2F7061736B6185
:105A18002F7069636F2F7069636F2D73646B2F73B9
:105A280072632F7270325F636F6D6D6F6E2F706966
:105A3800636F5F666C6F61742F666C6F61745F690A
:105A48006E69745F726F6D2E630000005F5F616541
:105A58006162695F666C6F61745F696E697400008A
:105A68004F7574206F66206D656D6F727900000048
:105A78004465627567000000626F6F74325F773249
:105A88003571303830000000312E352E31000000DD
:105A98007069636F5F7700006770696F5F696E7424
:105AA8006572727570740000417072203131203255
:105AB8003032340006005250D3F07542785A001044
:105AC80006005250E182887F805A0010060052502A
